{
  "abi": [
    {
      "inputs": [
        {
          "internalType": "string",
          "name": "path",
          "type": "string"
        },
        {
          "internalType": "string",
          "name": "fileName",
          "type": "string"
        }
      ],
      "name": "deployContract",
      "outputs": [
        {
          "internalType": "address",
          "name": "",
          "type": "address"
        }
      ],
      "stateMutability": "nonpayable",
      "type": "function"
    },
    {
      "inputs": [
        {
          "internalType": "string",
          "name": "path",
          "type": "string"
        },
        {
          "internalType": "string",
          "name": "fileName",
          "type": "string"
        },
        {
          "internalType": "bytes",
          "name": "args",
          "type": "bytes"
        }
      ],
      "name": "deployContract",
      "outputs": [
        {
          "internalType": "address",
          "name": "",
          "type": "address"
        }
      ],
      "stateMutability": "nonpayable",
      "type": "function"
    }
  ],
  "bytecode": {
    "object": "0x6080604052600080546001600160a01b031916737109709ecfa91a80626ff3989d68f67f5b1dd12d17905534801561003657600080fd5b50610768806100466000396000f3fe608060405234801561001057600080fd5b50600436106100365760003560e01c8063e0bdf5831461003b578063ee0e6fd31461006a575b600080fd5b61004e61004936600461043e565b61007d565b6040516001600160a01b03909116815260200160405180910390f35b61004e6100783660046104a2565b6101ea565b60408051600280825260608201909252600091829190816020015b6060815260200190600190039081610098579050509050604051806040016040528060058152602001643b3cb832b960d91b815250816000815181106100e0576100e0610558565b602002602001018190525083836040516020016100fe92919061059e565b6040516020818303038152906040528160018151811061012057610120610558565b602090810291909101015260008054604051638916046760e01b81526001600160a01b039091169063891604679061015c9085906004016105db565b6000604051808303816000875af115801561017b573d6000803e3d6000fd5b505050506040513d6000823e601f3d908101601f191682016040526101a39190810190610655565b905060008151602083016000f090506001600160a01b0381166101e15760405162461bcd60e51b81526004016101d8906106c3565b60405180910390fd5b95945050505050565b60408051600280825260608201909252600091829190816020015b6060815260200190600190039081610205579050509050604051806040016040528060058152602001643b3cb832b960d91b8152508160008151811061024d5761024d610558565b6020026020010181905250858560405160200161026b92919061059e565b6040516020818303038152906040528160018151811061028d5761028d610558565b602090810291909101015260008054604051638916046760e01b81526001600160a01b03909116906389160467906102c99085906004016105db565b6000604051808303816000875af11580156102e8573d6000803e3d6000fd5b505050506040513d6000823e601f3d908101601f191682016040526103109190810190610655565b905060008186866040516020016103299392919061070a565b604051602081830303815290604052905060008151602083016000f090506001600160a01b03811661036d5760405162461bcd60e51b81526004016101d8906106c3565b98975050505050505050565b634e487b7160e01b600052604160045260246000fd5b604051601f8201601f1916810167ffffffffffffffff811182821017156103b8576103b8610379565b604052919050565b600067ffffffffffffffff8211156103da576103da610379565b50601f01601f191660200190565b600082601f8301126103f957600080fd5b813561040c610407826103c0565b61038f565b81815284602083860101111561042157600080fd5b816020850160208301376000918101602001919091529392505050565b6000806040838503121561045157600080fd5b823567ffffffffffffffff8082111561046957600080fd5b610475868387016103e8565b9350602085013591508082111561048b57600080fd5b50610498858286016103e8565b9150509250929050565b600080600080606085870312156104b857600080fd5b843567ffffffffffffffff808211156104d057600080fd5b6104dc888389016103e8565b955060208701359150808211156104f257600080fd5b6104fe888389016103e8565b9450604087013591508082111561051457600080fd5b818701915087601f83011261052857600080fd5b81358181111561053757600080fd5b88602082850101111561054957600080fd5b95989497505060200194505050565b634e487b7160e01b600052603260045260246000fd5b60005b83811015610589578181015183820152602001610571565b83811115610598576000848401525b50505050565b600083516105b081846020880161056e565b8351908301906105c481836020880161056e565b622e767960e81b9101908152600301949350505050565b6000602080830181845280855180835260408601915060408160051b870101925083870160005b8281101561064857878503603f1901845281518051808752610629818989018a850161056e565b601f01601f191695909501860194509285019290850190600101610602565b5092979650505050505050565b60006020828403121561066757600080fd5b815167ffffffffffffffff81111561067e57600080fd5b8201601f8101841361068f57600080fd5b805161069d610407826103c0565b8181528560208385010111156106b257600080fd5b6101e182602083016020860161056e565b60208082526027908201527f56797065724465706c6f79657220636f756c64206e6f74206465706c6f7920636040820152661bdb9d1c9858dd60ca1b606082015260800190565b6000845161071c81846020890161056e565b820183858237600093019283525090939250505056fea264697066735822122088fcd3891382b0f42e182475bfd7424e6af9eac508d276e8fc7fbcbc75b600b464736f6c634300080f0033",
    "linkReferences": {}
  },
  "methodIdentifiers": {
    "deployContract(string,string)": "e0bdf583",
    "deployContract(string,string,bytes)": "ee0e6fd3"
  },
  "id": 9
}